:100000000C94C4300C94F5300C94F5300C94F5300D
:100010000C94F5300C946EAB0C94F5300C94F530D8
:100020000C94FFAE0C94F5300D94C2600C94F53036
:100030000C94F5300D948D3D0C94F5300C94F53006
:100040000C94F5300C94B9CC0C94F5300C94F5303C
:100050000C94F5300C94F5300D940E2B0D94F78C18
:100060000C94F5300C9469BE0C94F5300C94F5307A
:100070000C94F5300C94F5300C94F5300C94F5306C
:100080000C94F5300C94F5300C94F5300C94F5305C
:100090000C9425BE0C94F5300C94F5300C94F5308E
:1000A0000C94F5300C94F5300C94F5300C94F5303C
:1000B0000C94F5300C94F5300C94F5300C94F5302C
:1000C0000C94F5300C94F5300C94F5300C949EC8DB
:1000D0000C94F5300C94F5300C94F5300C94F5300C
:1000E0000C94F530BDE2D3E2E6E2F3E2FDE22BE36D
:1000F0004CE352E360E363E365E36FE380E391E3A2
:10010000AE015A015601260186016201A201500189
:10011000840142016801AA019001B40136019A01EB
:100120005C016E013E01AC0164013C0120017E01D5
:100130003801A401980152019601320144018E0157
:1001400054013801A0018A018801740194012A0137
:100150002201B6016A019E014E0148015E019C0127
:100160001E014001BA016A0146018201BC01084A30
:10017000D73B3BCE016E84BCBFFDC12F3D6C7431BB
:100180009ABD56833DDA3D00C77F11BED9E4BB4C12
:100190003E916BAAAABE000000803F05A84CCDB2DC
:1001A000D44EB93836A9020C50B9918688083CA6BD
:1001B000AAAA2ABE000000803F07634236B79BD838
:1001C000A71A39685618AEBAAB558C1D3CB7CC5738
:1001D00063BD6DEDFD753EF6177231BF0000008006
:1001E0003F08000000BE922449123EABAAAA2ABED4
:1001F000CDCCCC4C3E00000080BEABAAAAAA3E00EB
:10020000000000BF000000803F0000000000084127
:1002100078D3BB4387D1133D190E3CC3BD4282AD99
:100220002B3E68EC8276BED98FE1A93E4C80EFFF71
:10023000BE01C4FF7F3F0000000000000D94D58A7E
:100240000D941D880D94938A0D94928E0D942545DE
:100250000D9480000D94898A0D94C83C0D94238FD1
:100260000D94CC8E0D9440880D94418D0D947F5F3C
:100270000D9461880D9447A10D9419880D942960FF
:100280000D94E48A0D9477450D9446880D94F88A70
:100290000D94B78A0D94FB240D94443C0D94AF8AC1
:1002A0000D945B450D9438880D944E880D9413453C
:1002B0000D94F4410D940D450D94B55F0D94C18AD4
:1002C0000D94758E0D9447450D942A880D94A224A3
:1002D0000D948E450D94168B0D94B0A30D94F25F82
:1002E0000D94403C0D944A3C0D947F8A0D94068FEA
:1002F0000D94E98E0D94578E0D9459600D942388BA
:100300000D94AF8E0D94028B0D9469450D9441456B
:100310000D945C880D9458880D94CF8D0D944A8867
:100320000D94705F0D94848D0D94848A0D943C8897
:100330000D9432880D94985F0D94CB8A0D94A78A02
:100340000D9454880D944D450D942E880D944F3C7A
:100350000D94BB000D946C5F0D9427880D94FF44A1
:100360000D94D63C0D94328F0D94765F0D949D8A3A
:100370000D94438F0D94EE8A0D940C8B6E616E007C
:10038000696E66004E414E494E495459494E46CD1C
:10039000CCCC3D0AD7233C17B7D13877CC2B32953C
:1003A00095E6241FB14F0A000020410000C842001A
:1003B000401C4620BCBE4CCA1B0E5AAEC59D7400E4
:1003C000407A10F35A00A0724E18090010A5D4E824
:1003D0000000E87648170000E40B54020000CA9AB7
:1003E0003B000000E1F50500008096980000004009
:1003F000420F000000A0860100000010270000004E
:1004000000E803000000006400000000000A000093
:100410000000000100000000002C76D888DC674F47
:100420000823DFC1DFAE59E1B1B796E5E3E453C677
:100430003AE651997696E8E6C28426EB898C9B626F
:10044000ED407C6FFCEFBC9C9F40F2BAA56FA5F419
:1004500090055A2AF75C936B6CF9676DC11BFCE041
:10046000E40D47FEF520E6B500D0ED902E03009494
:100470003577050080841E080000204E0A00000029
:10048000C80C333333330F986E12831141EF8D2133
:1004900014893BE65516CFFEE6DB18D1844B381B9A
:1004A000F77C1D901DA4BBE424203284725E22815F
:1004B00000C9F124ECA1E53D27256420627974652B
:1004C00073207772697474656E20746F204545508F
:1004D000524F4D20617420616464726573732030E3
:1004E0007825303478004433202D20526561642F04
:1004F000577269746520454550524F4D0A0020439C
:100500006F756E7420583A20005344207072696EE3
:1005100074696E67206279746520004E6F7420697B
:100520006E206661726D206D6F64652E004163748C
:100530006976652045787472756465723A20004961
:100540006E76616C6964206578747275646572009A
:100550005A204F666673657400556E6B6E6F776ECA
:1005600020636F6D6D616E643A2022004D32303031
:1005700020496E76616C6964206578747275646573
:100580007220007A5F6D61783A20007A5F6D696E43
:100590003A2000795F6D61783A2000795F6D696E6D
:1005A0003A2000785F6D61783A20006F70656E00C8
:1005B00054524947474552454400785F6D696E3A49
:1005C00020005265706F7274696E6720656E647387
:1005D000746F7020737461747573000053494C45D7
:1005E0004E54004E4F524D414C002553204D4F4428
:1005F000453A2050657263656E7420646F6E653A8B
:100600002025643B207072696E742074696D6520CA
:1006100072656D61696E696E6720696E206D696EC5
:10062000733A2025640A00456E642066696C652073
:100630006C69737400426567696E2066696C652039
:100640006C6973740025643A2025640A000A5049D5
:100650004E44412074656D70657261747572653ABF
:1006600020252E3166205A20736869667420286D13
:100670006D293A20252E3366000A537465703A209E
:1006800025642F360A000A537465703A2025642FBA
:10069000362028736B6970706564290A50494E448E
:1006A000412074656D70657261747572653A2025BC
:1006B00064205A20736869667420286D6D293A3069
:1006C0000A000A5A45524F3A20252E33660A007313
:1006D000746172742074656D706572617475726591
:1006E0003A20252E31660A0025642020252E326608
:1006F00000255320583A20252E356620593A2025CA
:100700002E3566205A3A20252E35660A00536C6530
:1007100065702E2E2E004E6F7420696E20666172F9
:100720006D206D6F64652E0025640045303A2564A8
:100730002052504D0A50524E303A25642052504DAE
:100740000A002564004175746F0020452F443D0068
:10075000416476616E6365204B3D004D323230203E
:1007600053256900255346696C616D656E7420736D
:10077000657474696E67733A2044697361626C656D
:10078000640A00255346696C616D656E742073655B
:100790007474696E67733A0A25532020204D3230F5
:1007A000302044252E32660A00255352657472614A
:1007B00063743A20533D4C656E67746820286D6DF4
:1007C0002920463A537065656420286D6D2F6D2988
:1007D000205A3A205A4C69667420286D6D290A25E2
:1007E000532020204D3230372053252E32662046AC
:1007F000252E3266205A252E32660A25535265630D
:100800006F7665723A20533D4578747261206C654D
:100810006E67746820286D6D2920463A53706565AF
:100820006420286D6D2F6D290A25532020204D321C
:1008300030382053252E32662046252E32660A2572
:10084000534175746F2D526574726163743A20530D
:100850003D3020746F2064697361626C652C2031B7
:1008600020746F20696E746572707265742065788B
:1008700074727564652D6F6E6C79206D6F7665731B
:10088000206173207265747261637473206F7220CB
:100890007265636F7665726965730A25532020203F
:1008A0004D323039205325640A00255350494420E5
:1008B000686561746265642073657474696E6773DA
:1008C0003A0A25532020204D3330342050252E3233
:1008D000662049252E32662044252E32660A0025E0
:1008E000535049442073657474696E67733A0A25DE
:1008F000532020204D3330312050252E32662049A0
:10090000252E32662044252E32660A002553537464
:100910006570732070657220756E69743A0A25538C
:1009200020204D39322058252E32662059252E326E
:1009300066205A252E32662045252E32660A25531A
:100940004D6178696D756D20666565647261746569
:1009500073202D206E6F726D616C20286D6D2F736A
:10096000293A0A255320204D3230332058252E3283
:10097000662059252E3266205A252E3266204525BE
:100980002E32660A25534D6178696D756D20666556
:1009900065647261746573202D20737465616C7475
:1009A0006820286D6D2F73293A0A255320204D3277
:1009B00030332058252E32662059252E3266205A93
:1009C000252E32662045252E32660A25534D617844
:1009D000696D756D20616363656C65726174696FC3
:1009E0006E202D206E6F726D616C20286D6D2F73DF
:1009F00032293A0A255320204D3230312058256CB7
:100A0000752059256C75205A256C752045256C7507
:100A10000A25534D6178696D756D20616363656C5E
:100A200065726174696F6E202D20737465616C74DA
:100A30006820286D6D2F7332293A0A255320204DE6
:100A40003230312058256C752059256C75205A2577
:100A50006C752045256C750A2553416363656C658B
:100A6000726174696F6E3A20533D616363656C65B2
:100A7000726174696F6E2C20543D7265747261638B
:100A80007420616363656C65726174696F6E0A25B9
:100A90005320204D3230342053252E3266205425E9
:100AA0002E32660A2553416476616E636564207652
:100AB00061726961626C65733A20533D4D696E20C5
:100AC000666565647261746520286D6D2F73292CCD
:100AD00020543D4D696E2074726176656C206665A8
:100AE00065647261746520286D6D2F73292C204216
:100AF0003D6D696E696D756D207365676D656E74AA
:100B00002074696D6520286D73292C20583D6D6116
:100B100078696D756D205859206A65726B20286D53
:100B20006D2F73292C20205A3D6D6178696D756D8C
:100B3000205A206A65726B20286D6D2F73292C2036
:100B400020453D6D6178696D756D2045206A65723F
:100B50006B20286D6D2F73290A255320204D3230CC
:100B6000352053252E32662054252E32662042250C
:100B70002E32662058252E32662059252E326620C8
:100B80005A252E32662045252E32660A2553486F97
:100B90006D65206F666673657420286D6D293A0A4D
:100BA000255320204D3230362058252E32662059CC
:100BB000252E3266205A252E32660A004D4D5520CC
:100BC0003C3D2027462564202564270A00504944DF
:100BD000204175746F74756E652066696E697368FF
:100BE0006564212050757420746865206C6173748D
:100BF000204B702C204B6920616E64204B64206375
:100C00006F6E7374616E74732066726F6D206162B3
:100C10006F766520696E746F20436F6E66696775C5
:100C2000726174696F6E2E6800504944204175747A
:100C30006F74756E65206661696C656421207469E6
:100C40006D656F75740020403A00543A00423A00D6
:100C5000504944204175746F74756E6520666169F2
:100C60006C6564212054656D706572617475726580
:100C700020746F6F206869676800204B643A200019
:100C8000204B693A2000204B703A200020436C61D1
:100C9000737369632050494420002054753A200042
:100CA000204B753A2000206D61783A2000206D6954
:100CB0006E3A200020643A200020626961733A2075
:100CC0000020453A00205A3A0020593A0020453A7F
:100CD00000205A3A0020593A00583A00005A300091
:100CE0005A31005930005931005830005831004510
:100CF0006E642073746F70732064696167002E00E6
:100D000044656C6574696F6E206661696C65642CFE
:100D10002046696C653A200046696C652064656C04
:100D2000657465643A004E6F742053442070726994
:100D30006E74696E67005072696E742073617665B7
:100D400064005344207072696E742070617573651D
:100D500064000A002F000A002F2F20616374696F5E
:100D60006E3A63616E63656C0043524153485F4362
:100D7000414E43454C0043524153485F5245434F17
:100D80005645520043524153485F5245434F5645E2
:100D9000520022283229005400496E76616C696441
:100DA000205420636F64652E00556E6B6E6F776EF6
:100DB000204D20636F64653A202573200A006E6F12
:100DC0002076616C696420636F6D6D616E64002CC8
:100DD00020002C20002C20006E2F61002C20002CE5
:100DE00020002C20006E2F61002F00503A00576128
:100DF000697420666F722050494E444120746172BC
:100E00006765742074656D70657261747572653A9A
:100E1000004C414E472053454C20464F52434544D9
:100E200000222831290030303030303030302D3041
:100E30003030302D303030302D303030302D3030BB
:100E4000303030303030303030300020555549446B
:100E50003A0031002045585452554445525F434FA3
:100E6000554E543A005072757361206933204D4BD2
:100E70003300204D414348494E455F545950453A4F
:100E800000312E3000206261736564206F6E204D4A
:100E900061726C696E204649524D574152455F550B
:100EA000524C3A68747470733A2F2F67697468757E
:100EB000622E636F6D2F707275736133642F507281
:100EC0007573612D4669726D776172652050524F5E
:100ED000544F434F4C5F56455253494F4E3A00468C
:100EE00049524D574152455F4E414D453A507275FA
:100EF00073612D4669726D7761726520004D3131E5
:100F00003320530020423A0020453A00543A002052
:100F1000413A0020503A002042403A0020403A0036
:100F2000202F003A00205400202F0020423A0020B9
:100F30002F006F6B20543A002569206D696E2C20BC
:100F400025692073656300496E76616C6964204D84
:100F500020636F64653A202573200A00556E6B6E1E
:100F60006F776E204720636F64653A202573200AEF
:100F7000004D65736820626564206C6576656C69F8
:100F80006E67206E6F74206163746976652E000A47
:100F9000002020000A4D6561737572656420706FD2
:100FA000696E74733A000A5A20736561726368202F
:100FB0006865696768743A20002C004E756D20588A
:100FC0002C593A2000206D6963726F6E730045786A
:100FD0006365737369766520626564206C65766508
:100FE0006C696E6720636F7272656374696F6E3AC5
:100FF00020004732382057300050494E444120707D
:10100000726F62652063616C6962726174696F6E90
:1010100020737461727400473238205730004D32AB
:1010200034005345545F43484F505F005345545F6D
:10103000535445505F005345545F574156455F0038
:10104000544D435F0043524153485F0050726573F3
:1010500073206B6E6F6220746F20707265686561BB
:1010600074206E6F7A7A6C6520616E6420636F6E97
:1010700074696E75652E00506C65617365207072C1
:1010800065737320746865206B6E6F6220746F20C7
:10109000756E6C6F61642066696C616D656E74005D
:1010A00052656D6F7665206F6C642066696C616D4A
:1010B000656E7420616E642070726573732074684D
:1010C00065206B6E6F6220746F2073746172742080
:1010D0006C6F6164696E67206E65772066696C610C
:1010E0006D656E742E00616E64207072657373207E
:1010F000746865206B6E6F6200496E736572742050
:1011000066696C616D656E7400436F6C6F72206E02
:101110006F7420636F72726563740046696C616DF1
:10112000656E74206E6F74206C6F6164656400433B
:1011300068616E67656420636F72726563746C7951
:101140003F004C6F6164696E6720636F6C6F720063
:101150004368616E6765207375636365737321000F
:10116000506C65617365206F70656E2069646C6595
:101170007220616E642072656D6F76652066696CA1
:10118000616D656E74206D616E75616C6C792E0099
:101190005761732066696C616D656E7420756E6C45
:1011A0006F6164207375636365737366756C3F006C
:1011B000506C6561736520757067726164652E009F
:1011C0004E6577206669726D77617265207665720B
:1011D00073696F6E20617661696C61626C653A005B
:1011E00057616974696E6720666F722050494E447A
:1011F000412070726F626520636F6F6C696E67006B
:1012000043726173682064657465637465642E203D
:10121000526573756D65207072696E743F0043721C
:101220006173682064657465637465642E00457835
:101230007472756465720043686F6F7365206578BA
:101240007472756465723A0043686F6F73652066E7
:10125000696C616D656E743A004E6F206D6F7665D6
:101260002E005761697420666F7220757365722E47
:101270002E2E00536F6D652070726F626C656D204D
:10128000656E636F756E74657265642C205A2D6C83
:101290006576656C696E6720656E666F72636564FE
:1012A000202E2E2E00537461626C6520616D626980
:1012B000656E742074656D706572617475726520F9
:1012C00032312D323643206973206E656564656462
:1012D0002061207269676964207374616E6420699B
:1012E000732072657175697265642E00506C65615A
:1012F00073652072756E2058595A2063616C69625B
:10130000726174696F6E2066697273742E00585929
:101310005A2063616C6962726174696F6E20616CDE
:101320006C2072696768742E20536B65772077692B
:101330006C6C20626520636F7272656374656420F3
:101340006175746F6D61746963616C6C792E00589E
:10135000595A2063616C6962726174696F6E2061B1
:101360006C6C2072696768742E20582F5920617840
:1013700065732061726520736C696768746C79208D
:10138000736B657765642E20476F6F64206A6F62A8
:10139000210058595A2063616C6962726174696FE7
:1013A0006E206F6B2E20582F592061786573206155
:1013B00072652070657270656E646963756C6172C8
:1013C0002E20436F6E67726174756C6174696F6E05
:1013D00073210058595A2063616C696272617469A3
:1013E0006F6E206661696C65642E2052696768744F
:1013F0002066726F6E742063616C696272617469D9
:101400006F6E20706F696E74206E6F7420726561EC
:10141000636861626C652E0058595A2063616C697B
:1014200062726174696F6E206661696C65642E20FA
:1014300046726F6E742063616C6962726174696F69
:101440006E20706F696E7473206E6F7420726561A8
:10145000636861626C652E0058595A2063616C693B
:1014600062726174696F6E206661696C65642E20BA
:10147000506C6561736520636F6E73756C74207456
:101480006865206D616E75616C2E0058595A206335
:10149000616C6962726174696F6E20636F6D7072E6
:1014A0006F6D697365642E20526967687420667277
:1014B0006F6E742063616C6962726174696F6E2013
:1014C000706F696E74206E6F7420726561636861FD
:1014D000626C652E0058595A2063616C69627261B2
:1014E00074696F6E20636F6D70726F6D6973656480
:1014F0002E2046726F6E742063616C696272617433
:10150000696F6E20706F696E7473206E6F742072D5
:101510006561636861626C652E0058595A20636189
:101520006C6962726174696F6E206661696C656472
:101530002E204265642063616C6962726174696F18
:101540006E20706F696E7420776173206E6F7420E7
:10155000666F756E642E00506C6561736520706CEB
:1015600061636520737465656C20736865657420BC
:101570006F6E20686561746265642E0044697374DF
:10158000616E6365206265747765656E207469704D
:10159000206F6620746865206E6F7A7A6C652061B2
:1015A0006E6420746865206265642073757266617C
:1015B000636520686173206E6F74206265656E20BC
:1015C000736574207965742E20506C656173652095
:1015D000666F6C6C6F7720746865206D616E7561E5
:1015E0006C2C206368617074657220466972737434
:1015F0002073746570732C2073656374696F6E203B
:101600004669727374206C617965722063616C69DC
:1016100062726174696F6E2E00506C616365206147
:10162000207368656574206F662070617065722034
:10163000756E64657220746865206E6F7A7A6C6569
:1016400020647572696E67207468652063616C69D7
:1016500062726174696F6E206F662066697273745E
:10166000203420706F696E74732E20496620746870
:1016700065206E6F7A7A6C65206361746368657348
:10168000207468652070617065722C20706F7765BA
:1016900072206F666620746865207072696E74656A
:1016A0007220696D6D6564696174656C792E005096
:1016B0006C656173652072656D6F76652073746506
:1016C000656C2073686565742066726F6D2068654F
:1016D00061746265642E00497320737465656C20C3
:1016E0007368656574206F6E2068656174626564F7
:1016F0003F00206F66203400536561726368696E35
:1017000067206265642063616C6962726174696FED
:101710006E20706F696E7400206F662039004D6511
:1017200061737572696E67207265666572656E6356
:101730006520686569676874206F662063616C69FD
:1017400062726174696F6E20706F696E7400506CA4
:101750006561736520636C65616E20746865206ED9
:101760006F7A7A6C6520666F722063616C69627251
:101770006174696F6E2E20436C69636B20776865B6
:101780006E20646F6E652E004175746F20686F6DFA
:10179000650078797A63616C5F6D656173737572EA
:1017A000655F656E7465720A0078797A63616C5F53
:1017B00073706972616C382063783D2564206379A9
:1017C0003D2564207A303D256420647A3D256420DF
:1017D0007261646975733D25642061643D25640A06
:1017E0000078797A63616C5F7365617263685A200F
:1017F0006E6F207369676E616C0A20783D256C649A
:1018000020793D256C64207A3D256C640A00204FC8
:101810004E2D5349474E414C20617420783D25643C
:1018200020793D2564207A3D25642061643D25644E
:101830000A0078797A63616C5F7365617263685AD4
:1018400020783D256C6420793D256C64207A3D2507
:101850006C640A000A00253032780078797A636176
:101860006C5F7363616E5F706978656C735F333250
:101870007833322063783D25642063793D256420E8
:101880006D696E5F7A3D2564206D61785F7A3D25D4
:10189000640A00202532642025640A000A002530ED
:1018A000327800206D696E3D2564206D61783D259C
:1018B00064206469663D25640A006D61785F633D5C
:1018C000253264206D61785F6C3D25640A006D618E
:1018D000785F633D2564206D61785F723D256420EB
:1018E0006D61785F6D617463683D25640A002078DE
:1018F0003D256420793D2564207A3D25640A002039
:101900007061747465726E20666F756E64206174A8
:101910002025642025640A000000F000F801FC0383
:10192000FE07FE07FE07FE07FC03F801F0000000BB
:1019300073697A656F6628746F74616C293D2564DC
:101940000A0073697A656F6628626C6F636B5F6209
:101950007566666572293D25640A0078797A636147
:101960006C5F6D656173737572655F6C65617665DB
:101970000A00706F696E743D256420783D256420EF
:10198000793D2564207A3D25640A005802580258A2
:101990004D584DB004F055F055B00478797A636134
:1019A0006C5F66696E645F6265645F696E647563CF
:1019B00074696F6E5F73656E736F725F706F696E5F
:1019C000745F787920783D256C6420793D256C64BE
:1019D000207A3D256C640A00203C20005741524E7D
:1019E000494E473A2046726F6E7420706F696E746C
:1019F000206E6F7420726561636861626C652E2071
:101A00005920636F6F7264696E6174653A000000FB
:101A10000040410000C04000005C430000C04000A6
:101A2000005C43000046430000404100004643493B
:101A30007465726174696F6E3A200043616C69620B
:101A4000726174696F6E206661696C656421204300
:101A50006865636B20746865206178657320616ECA
:101A6000642072756E20616761696E2E0073746107
:101A700072740A006164635F696E69740A001B5BBB
:101A8000324A1B5B313B31484F726967696E616C4A
:101A90002050727573612069331B5B323B334850B1
:101AA0007275736120526573656172636800466187
:101AB00063746F7279205245534554004A616E2019
:101AC0003136203230313900436F6D70696C656496
:101AD0003A2000286E6F6E652C2064656661756C17
:101AE0007420636F6E66696729004A616E20313623
:101AF00020323031392031373A30383A353500200C
:101B0000322E312E362D545A4237372D3233373854
:101B10000A002055706C6F616420696E2070726FCE
:101B2000677265737300205A3A0020593A002058B2
:101B30003A0043524153485F444554454354454459
:101B400058590043524153485F4445544543544516
:101B500044590043524153485F444554454354451A
:101B60004458004D3239005072757361206933203A
:101B70004D4B332072656164792E00426C61636B5A
:101B80006F7574206F636375727265642E20526581
:101B9000636F766572207072696E743F0053656C76
:101BA00066746573742077696C6C20626520727549
:101BB0006E20746F2063616C69627261746520616C
:101BC000636375726174652073656E736F726C65A3
:101BD0007373207265686F6D696E672E0054686557
:101BE0007265206973207374696C6C2061206E6566
:101BF000656420746F206D616B65205A2063616C91
:101C00006962726174696F6E2E20506C65617365D4
:101C100020666F6C6C6F7720746865206D616E75DF
:101C2000616C2C2063686170746572204669727300
:101C3000742073746570732C2073656374696F6EA0
:101C40002043616C6962726174696F6E20666C6FAB
:101C5000772E005072696E74657220686173206E11
:101C60006F74206265656E2063616C696272617475
:101C70006564207965742E20506C656173652066FB
:101C80006F6C6C6F7720746865206D616E75616C28
:101C90002C206368617074657220466972737420C9
:101CA00073746570732C2073656374696F6E204361
:101CB000616C6962726174696F6E20666C6F772EF9
:101CC000004F6C642073657474696E677320666F6F
:101CD000756E642E2044656661756C7420504944AD
:101CE0002C20457374657073206574632E207769AA
:101CF0006C6C206265207365742E005761726E698A
:101D00006E673A20626F7468207072696E746572D3
:101D1000207479706520616E64206D6F74686572DF
:101D2000626F6172642074797065206368616E67A8
:101D300065642E005761726E696E673A2070726931
:101D40006E7465722074797065206368616E676572
:101D5000642E005761726E696E673A206D6F746809
:101D60006572626F61726420747970652063686166
:101D70006E6765642E0045787465726E616C2053E1
:101D8000504920666C6173682057323558323043B1
:101D90004C206E6F7420726573706F6E64696E672D
:101DA0002E0043726173684465746563742044490E
:101DB0005341424C45440043726173684465746505
:101DC000637420454E41424C454421002020506C14
:101DD000616E6E657242756666657242797465738E
:101DE0003A20002046726565204D656D6F72793A24
:101DF0002000207C20417574686F723A2000204CCE
:101E000061737420557064617465643A20002053D6
:101E10006F66747761726520526573657400205730
:101E200061746368646F6720526573657400204253
:101E3000726F776E206F7574205265736574002021
:101E400045787465726E616C2052657365740050DC
:101E50006F7765725570006572726F722077726964
:101E600074696E6720746F2066696C6500656E64C6
:101E700073746F7073206869743A2000446F6E65E4
:101E800020736176696E672066696C652E006F6BE2
:101E900000773235783230636C5F63666D0A0077A5
:101EA0003235783230636C5F656E7465720A00504B
:101EB0004154393132355F5245535F593D25686889
:101EC000750A00504154393132355F5245535F58DD
:101ED0003D256868750A0020746F6F206C6F6E670F
:101EE00020657874727573696F6E2070726576659F
:101EF0006E7465640020636F6C642065787472751D
:101F000073696F6E2070726576656E7465640050DB
:101F10006C656173652075706461746520666972B3
:101F20006D7761726520696E20796F7572204D4DF5
:101F300055322E2057616974696E6720666F722072
:101F400072657365742E0043757272656E742053EA
:101F5000746570732000523A53657420426F6E644A
:101F600054656368205374657073004D3A426F770F
:101F70004C656E204C6F616432436865636B200072
:101F80004C3A2020205361766520262045786974DC
:101F9000202020200043757272656E742053746592
:101FA00070732000523A20202D333020285265745F
:101FB0007261637429202020004D3A556E6C6F6168
:101FC0006428536176652F526574727929004C3A02
:101FD00020202B33302028457874727564652920C1
:101FE00020200043757272656E742053746570739F
:101FF0002000523A20202D32302028526574726120
:10200000637429202020004D3A556E6C6F61642066
:102010005361766520262045786974004C3A20206B
:102020002B32302028457874727564652920202071
:10203000004D4D55204F4B2E20526573756D696EC6
:10204000672E2E2E004D4D55204F4B2E205265737E
:10205000756D696E6720706F736974696F6E2E2E6F
:102060002E004D4D55204F4B2E20526573756D69D6
:102070006E672074656D70657261747572652E2E61
:102080002E00466978207468652069737375652031
:10209000616E64207468656E20707265737320626F
:1020A0007574746F6E206F6E204D4D5520756E697E
:1020B000742E00507265737320746865206B6E6FA8
:1020C0006220746F20726573756D65206E6F7A7A09
:1020D0006C652074656D70657261747572652E0033
:1020E0004D4D55206E656564732075736572206172
:1020F0007474656E74696F6E2E00506C65617365E3
:102100002072656D6F76652066696C616D656E74B1
:1021100020616E64207468656E2070726573732030
:10212000746865206B6E6F622E00456A6563746922
:102130006E672066696C616D656E74004D4D553239
:10214000206669726D776172652076657273696F5A
:102150006E20696E76616C69642E205265717569B6
:102160007265642076657273696F6E3A2062756974
:102170006C64206E756D626572202564206F72201C
:102180006869676865722E004D4B33203D3E204DD7
:102190004D5520275230270A004D4B33203D3E201D
:1021A0004D4D552027452564270A004D4B33203DD2
:1021B0003E204D4D5520275530270A004D4B3320EA
:1021C0003D3E204D4D5520274330270A004D4B33CF
:1021D000203D3E204D4D5520274C2564270A004DBB
:1021E0004B33203D3E204D4D552027542564204043
:1021F000746F6F6C4368616E67653A2564270A00E7
:102200004D4D55203D3E204D4B332027776169745D
:10221000696E6720666F722066696C616D656E74A9
:102220002040204D4B332053656E736F72270A0098
:102230004D4D55203D3E204D4B3320276F6B270AD7
:10224000004D4D55203D3E204D4B3320276F6B7583
:10225000270A004D363030004D363030204155547D
:102260004F004653454E534F525F5245434F5645DC
:1022700052002F2F20616374696F6E3A6D363030D3
:102280000A004D4D55202D20454E41424C454400FD
:102290004D4D55203D3E204D4B3320274163746901
:1022A00076652045787472756465723A2564270AEC
:1022B000004D4D552076657273696F6E2076616CA6
:1022C0006964004D4D55203D3E204D4B3320272560
:1022D00064270A004D4D55203D3E204D4B332027AD
:1022E0002564270A004D4D55206E6F74207265736A
:1022F000706F6E64696E67202D2044495341424CD3
:102300004544002F2F20616374696F6E3A6D6D75BF
:102310004661696C6564556E6C6F61640A002F2FAD
:1023200020616374696F6E3A6D6D754661696C65A5
:10233000644C6F6164320A002F2F20616374696FEF
:102340006E3A6D6D754661696C65644C6F616431A0
:102350000A004D4D55203D3E204D4B3320274F4B1D
:10236000204163746976652045787472756465727E
:102370003A2564270A004D4D5520737461727473B9
:1023800020726573706F6E64696E670A004D4D55FB
:10239000206E6F7420726573706F6E64696E670A69
:1023A000002F2F20616374696F6E3A6D6D754174F3
:1023B00074656E74696F6E0A00452D41584953204B
:1023C000456E61626C65642E0A00452D4158495383
:1023D0002044697361626C65642E0A000000803FCE
:1023E000555585410000803F0000C8410000004075
:1023F000555505420000C03F000048420000204003
:1024000055558542000070C1ABAAA642000060C1CC
:102410000000A0410000C0C0000020410000204199
:10242000ABAA3A41000020C15555D5404D37303157
:10243000204530004D373031204531004D373031A7
:10244000204532004D373031204533004D37303193
:10245000204534004D373031204534004D37303180
:10246000204533004D373031204532004D37303173
:10247000204531004D3730312045300046696C61D0
:102480006D656E74206E72206F7574206F66207299
:10249000616E6765210025632533642F25642563FC
:1024A000004B494C4C45442E20005072696E7465B7
:1024B000722068616C7465642E206B696C6C2829CD
:1024C0002063616C6C656421004B494C4C3A2025BB
:1024D000640A004D31303420496E76616C696420A5
:1024E000657874727564657220004D31303520490D
:1024F0006E76616C696420657874727564657220AB
:10250000004D31303920496E76616C696420657800
:1025100074727564657220004D32313820496E76D0
:10252000616C696420657874727564657220004D11
:1025300032323120496E76616C696420657874723C
:1025400075646572200055564C4F202D20656E64D1
:102550002025640A007374707325640A00776F7213
:102560006C6420636F6F7264696E617465733A2086
:1025700028252E33662C20252E33662C20252E333D
:1025800066290A00706879736963616C20636F6FF4
:102590007264696E617465733A2028252E33662C47
:1025A00020252E33662C20252E3366290A004375FC
:1025B0007272656E7420706F73205A5F4158495370
:1025C0003A252E33660A43757272656E7420706FF9
:1025D0007320455F415849533A252E33660A00411E
:1025E000667465722077616974696E6720666F72C0
:1025F0002074656D703A0A43757272656E7420704E
:102600006F7320585F415849533A252E33660A4369
:10261000757272656E7420706F7320595F415849EE
:10262000533A252E33660A0020573A0020453A00D7
:10263000543A005A206C6976652061646A75737437
:10264000206F7574206F662072616E67652E20534F
:10265000657474696E6720746F20302E20436C6936
:10266000636B20746F20636F6E74696E75652E00E6
:102670005A206C6976652061646A757374206F7581
:1026800074206F662072616E67652E2053657474C6
:10269000696E6720746F20300020423A0020453A6E
:1026A00000543A00494E5434007265636F76657287
:1026B0005F6D616368696E655F73746174655F61A6
:1026C000667465725F706F7765725F70616E696363
:1026D0002C20696E697469616C20007265636F7685
:1026E00065725F6D616368696E655F73746174655F
:1026F0005F61667465725F706F7765725F70616E3F
:1027000069632C20696E697469616C2000473932F5
:1027100020450050525553412075766C6F00473468
:10272000205330004D32362053256C75004D31302A
:10273000362053004D38320047312046256400478B
:10274000312045322A64656661756C745F72657408
:1027500072616374696F6E204634383000473120EF
:102760005A0020463230303000205900473120587E
:10277000004D383300506F736974696F6E20726555
:1027800061642066726F6D20656570726F6D3A00CE
:102790004D3233202573002E67636F0046656564F4
:1027A000726174653A00473120452D646566617534
:1027B0006C745F72657472616374696F6E20463405
:1027C00038300047312045352046313230004D3811
:1027D00033004D31393020532564004D31303920DC
:1027E0005325640047323820582059004731205A79
:1027F00032352046383030005265636F7665726935
:102800006E67207072696E742020202000536574FA
:1028100074696E67732053746F7265640053746FCC
:102820007265642073657474696E67732072657471
:102830007269657665640048617264636F6465649B
:102840002044656661756C742053657474696E67A5
:1028500073204C6F6164656400563200000000C84C
:10286000420000C8420000C84300008C43000048FA
:102870004300004843000040410000F042E80300EC
:1028800000E8030000C80000008813000000409C1E
:102890004400409C440000000000000000204E0066
:1028A000000000204100002041CDCCCC3E000020A3
:1028B00040000000000000000000000000CDCCCC73
:1028C0003E3D0A8141FF08433EB099AB438F42FC35
:1028D00042E65A343F4C62B04500000000004040E0
:1028E0000000344200000000000000000000004131
:1028F000000000E03F0000C8420000C84200004065
:10290000410000F042C0030000C0030000C8000006
:102910000088130000454550524F4D204572726F9C
:102920007200436F6E74696E7565207769746820F4
:10293000616E6F7468657220626F7764656E3F00C8
:1029400025002020202020200020202020202000E2
:1029500045524153494E4720616C6C20646174615B
:1029600000466163746F72792052455345540000EC
:10297000007F4300805443000052430000000000E9
:102980000080C09A99193E00000000000080C09AA3
:1029900099193E544D4320445249564552204F56B2
:1029A000455254454D500025632533642F25642539
:1029B00063005A25362E326620005A2020202D2D05
:1029C0002D200025632533642525002D2D2D002580
:1029D000336868640025335325337325250020535D
:1029E000440020202000555342002025753E2575C7
:1029F00000204625750020463020200025632D2D1F
:102A00003A2D2D2020002563253375682025632568
:102A100063002563253032753A25303275256325EC
:102A20006300726573756C742076616C75653A200D
:102A300025640A0020693D25326420636E743D25BB
:102A400032642076616C3D2532640A00636C7573D4
:102A5000746572733A0A0020693D253264207374EC
:102A600065703D2532640A00736F7274656420736B
:102A7000616D706C65733A0A003A200020202020B6
:102A80002020202020202020202020202020200066
:102A9000203A20002020202020202020202020203C
:102AA0002020202020202020002020202020202046
:102AB0002020202020200025730050494E44412032
:102AC00048656174696E670054656D702E2063619E
:102AD0006C2E202020202020202020200043616C0C
:102AE0006962726174696F6E20646F6E6500436124
:102AF0006C6962726174696E67205A004265642075
:102B0000646F6E65004265642048656174696E6734
:102B10000048656174696E6720646F6E652E0048B9
:102B2000656174696E670024F4D43050C38E20C28E
:102B3000A24017828B7011127A910D816CD90AA86C
:102B400061E108C7586607615143061E4B5D05C128
:102B500045A7041A411104093D9803713931034016
:102B600036DB0265339102D4305402802E1D02639D
:102B70002CEE01752AC501B028A001102781018F14
:102B80002564012B244B01E0223401AC211F018D6F
:102B9000200D01801FFC00841EED00971DDF00B892
:102BA0001CD200E61BC600201BBC00641AB200B297
:102BB00019A8000A19A0006A189900D117910040BD
:102BC000178B00B516840031167E00B31579003AD4
:102BD000157300C7146F0058146A00EE136600885E
:102BE00013630025135E00C7125B006C12570015BB
:102BF000125400C111510070114F0021114B00D629
:102C00001049008D1047004610440002104200C0D9
:102C10000F4000800F3E00420F3C00060F3B00CBF0
:102C20000E3800930E37005C0E3500270E3400F38B
:102C30000D3200C10D3100900D3000600D2E0032BC
:102C40000D2D00050D2C00D90C2B00AE0C29008594
:102C50000C29005C0C2700350C27000E0C2600E820
:102C60000B2400C40B2400A00B23007D0B23005A6F
:102C70000B2100390B2100180B2000F80A1F00D986
:102C80000A1E00BB0A1E009D0A1D00800A1D00636B
:102C90000A1C00470A1B002C0A1B00110A1A00F725
:102CA000091A00DD091900C4091900AB09190092BD
:102CB0000917007B091800630917004C0916003634
:102CC000091600200916000A091500F5081500E08C
:102CD000081400CC081400B8081400A408140090CC
:102CE0000813007D0812006B0813005808120046F4
:102CF0000812003408110023081100120811000105
:102D0000081100F0071000E0071000D0071000C005
:102D1000071000B0070F00A107100091070E0083F5
:102D2000070F0074070F0065070E0057070E0049D4
:102D3000070E003B070D002E070E0020070D0013A5
:102D4000070D0006070D00F9060C00ED060D00E06A
:102D5000060C00D4060C00C8060C00BC060C00B023
:102D6000060C00A4060B0099060C008D060B0082D1
:102D7000060B0077060B006C060B0061060A005775
:102D8000060B004C060A0042060A0038060A002E0E
:102D9000060A0024060A001A060A0010060900079F
:102DA000060A00FD050900F4050900EB050900E22B
:102DB000050900D9050900D0050900C7050900BEAD
:102DC000050900B5050800AD050800A50509009C2A
:102DD000050800940508008C050800840508007C9F
:102DE000050800740508006C050700650508005D0E
:102DF000050700560508004E050700470507004077
:102E000005080038050700310507002A05070023DB
:102E10000507001C050600160507000F050700083A
:102E200005060002050700FB040600F5040700EE96
:102E3000040600E8040600E2040700DB040600D5EF
:102E4000040600CF040600C9040600C3040600BD42
:102E5000040600B7040600B1040500AC040600A691
:102E6000040600A00405009B0406009504050090DC
:102E70000406008A04050085040500800406007A23
:102E800004050075040500700405006B0405006668
:102E9000040500610405005C0405005704050052A8
:102EA0000405004D04050048040500430405003EE8
:102EB0000404003A04050035040500300404002C25
:102EC00004050027040400230405001E0404001A5E
:102ED00004040016040500110404000D0404000994
:102EE0000405000404040000040400FC030400F8CA
:102EF000030400F4030400F0030400EC030400E8FE
:102F0000030400E4030400E0030400DC030400D82D
:102F1000030400D4030400D0030400CC030400C85D
:102F2000030300C503030024F404D9201BC40C5C74
:102F30000E9804C4095F0265077101F405F900FBEE
:102F400004B30048048700C1036900580355000317
:102F5000034500BE023A008402310053022A0029D0
:102F600002250004022000E4011C00C8011900AF82
:102F70000117009801140084011300710110006111
:102F800001100051010E0043010D0036010B002B12
:102F9000010B0020010B00150109000C01090003C1
:102FA000010800FB000800F3000800EB000700E444
:102FB000000600DE000600D8000600D2000600CCA5
:102FC000000500C7000500C2000500BD000400B9EF
:102FD000000400B5000400B1000400AD000400A925
:102FE000000400A5000300A20003009F0004009B52
:102FF0000003009800030095000200930003009076
:103000000003008D0002008B000300880002008690
:1030100000020084000300810002007F0002007DA6
:103020000002007B000200790002007700010076B8
:103030000002007400020072000100710002006FC3
:103040000002006D0001006C0002006A00010069CE
:1030500000020067000100660001006500010064D5
:103060000002006200010061000100600001005FD9
:103070000002005D0001005C0001005B0001005ADD
:1030800000010059000100580001005700010056DE
:1030900000010055000100540001005300000053DE
:1030A0000001005200010051000100500001004FDA
:1030B0000001004E0000004E0001004D0001004CD8
:1030C0000001004B0000004B0001004A00010049D4
:1030D00000010048000000480001004700010046D0
:1030E00000000046000100450000004500010044CA
:1030F00000010043000000430001004200000042C4
:103100000001004100000041000100400001003FBB
:103110000000003F0001003E0000003E0001003DB5
:103120000000003D0001003C0000003C0000003CAD
:103130000001003B0000003B0001003A0000003AA3
:10314000000100390000003900010038000000389B
:103150000000003800010037000000370001003691
:103160000000003600000036000100350000003588
:10317000000000350001003400000034000000347D
:103180000001003300000033000000330001003272
:103190000000003200000032000100310000003168
:1031A000000000310001003000000030000000305D
:1031B0000001002F0000002F0000002F0000002F52
:1031C0000001002E0000002E0000002E0001002D46
:1031D0000000002D0000002D0000002D0001002C3B
:1031E0000000002C0000002C0000002C0001002B2F
:1031F0000000002B0000002B0000002B0001002A23
:103200000000002A0000002A0000002A0001002916
:10321000000000290000002900000029000000290A
:1032200000010028000000280000002800000028FD
:1032300000000028000100270000002700000027F0
:1032400000000027000000270001002600000026E3
:1032500000000026000000260000002600010025D6
:1032600000000025000000250000002500000025CA
:1032700000000025000100240000002400000024BC
:1032800000000024000000240001002300000023AF
:1032900000000023000000230000002300000023A2
:1032A0000000002300010022000000220000002294
:1032B0000000002200000022000000220001002186
:1032C000000000210000002100000021000000217A
:1032D000000000210000002100010020000000206B
:1032E000000000200000002000000020000000205E
:1032F00000000020000000200001001F0000001F4F
:103300000000001F0000001F0000001F0000001F41
:103310000000001F0001001E0000001E0000001E33
:103320000000001E000000473830004D3435004DCD
:103330003435205A004737360057697A6172642065
:1033400073746174653A2025640044697361626C2A
:1033500065206661726D206D6F6465004661726DF7
:10336000206E756D626572004D3834004D34340046
:103370004732382057004739390044697361626C1D
:1033800065206661726D206D6F64653F0043616CFE
:1033900069627261746500506C65617365206C6F61
:1033A000616420504C412066696C616D656E7420CB
:1033B00066697273742E00497320504C412066690F
:1033C0006C616D656E74206C6F616465643F004371
:1033D000616E63656C0046696C616D656E74005367
:1033E000656C65637420504C412066696C616D6545
:1033F0006E743A0052756E6E696E672057697A6115
:1034000072642077696C6C2064656C6574652063F8
:10341000757272656E742063616C69627261746941
:103420006F6E20726573756C747320616E642073A7
:10343000746172742066726F6D20746865206265B5
:1034400067696E6E696E672E20436F6E74696E7564
:10345000653F0050726568656174696E67206E6FC4
:103460007A7A6C652E20506C65617365207761698E
:10347000742E00456A65637400556E6C6F6164005C
:1034800055736520756E6C6F616420746F20726572
:103490006D6F76652066696C616D656E7420312094
:1034A00069662069742070726F7472756465732028
:1034B0006F757473696465206F6620746865207227
:1034C000656172204D4D5520747562652E205573CF
:1034D0006520656A65637420696620697420697374
:1034E0002068696464656E20696E20747562652E5B
:1034F000004C6F6164696E672066696C616D656E12
:103500007400506C6561736520696E736572742018
:10351000504C412066696C616D656E7420746F203B
:103520007468652065787472756465722C2074689F
:10353000656E207072657373206B6E6F6220746F9E
:10354000206C6F61642069742E00506C6561736536
:1035500020696E7365727420504C412066696C61FD
:103560006D656E7420746F2074686520666972736F
:10357000742074756265206F66204D4D552C207443
:1035800068656E20707265737320746865206B6E59
:103590006F6220746F206C6F61642069742E005913
:1035A0006F752063616E20616C776179732072653D
:1035B00073756D65207468652057697A617264203F
:1035C00066726F6D2043616C6962726174696F6EBF
:1035D000202D3E2057697A6172642E00506C65611F
:1035E000736520636865636B206F75722068616E18
:1035F00064626F6F6B20616E642066697820746806
:10360000652070726F626C656D2E205468656E2047
:10361000726573756D65207468652057697A61728B
:1036200064206279207265626F6F74696E672074BE
:103630006865207072696E7465722E00416C6C2032
:10364000697320646F6E652E2048617070792070F8
:1036500072696E74696E672100506C6561736520D4
:10366000636C65616E206865617462656420616E7B
:1036700064207468656E2070726573732074686569
:10368000206B6E6F622E00446F20796F752077611A
:103690006E7420746F20726570656174206C617344
:1036A00074207374657020746F20726561646A752C
:1036B00073742064697374616E63652062657477E6
:1036C00065656E206E6F7A7A6C6520616E64206825
:1036D0006561746265643F00492077696C6C207392
:1036E0007461727420746F207072696E74206C69DA
:1036F0006E6520616E6420796F752077696C6C202F
:103700006772616475616C6C79206C6F776572208B
:10371000746865206E6F7A7A6C6520627920726FAA
:10372000746174696E6720746865206B6E6F622CBB
:1037300020756E74696C20796F752072656163689D
:10374000206F7074696D616C206865696768742E9C
:1037500020436865636B20746865207069637475C5
:1037600072657320696E206F75722068616E646285
:103770006F6F6B20696E206368617074657220439F
:10378000616C6962726174696F6E2E004E6F772092
:10379000492077696C6C2063616C69627261746541
:1037A0002064697374616E63652062657477656512
:1037B0006E20746970206F6620746865206E6F7A61
:1037C0007A6C6520616E642068656174626564204E
:1037D000737572666163652E0049732069742050A9
:1037E0004C412066696C616D656E743F0053656C79
:1037F000656374206E6F7A7A6C6520707265686597
:1038000061742074656D706572617475726520777E
:1038100068696368206D61746368657320796F758A
:1038200072206D6174657269616C2E004E6F772035
:10383000492077696C6C2070726568656174206ED0
:103840006F7A7A6C6520666F7220504C412E004969
:10385000732066696C616D656E74206C6F61646560
:10386000643F0049732066696C616D656E74203138
:10387000206C6F616465643F004E6F77204920774C
:10388000696C6C2070726568656174206E6F7A7AFD
:103890006C6520666F7220504C412E00492077697C
:1038A0006C6C2072756E207A2063616C6962726143
:1038B00074696F6E206E6F772E004E6F7720726581
:1038C0006D6F7665207468652074657374207072FE
:1038D000696E742066726F6D20737465656C2073F9
:1038E000686565742E00506C656173652072656D46
:1038F0006F7665207368697070696E672068656CA3
:10390000706572732066697273742E00492077693E
:103910006C6C2072756E2078797A2063616C6962B4
:10392000726174696F6E206E6F772E2049742077F4
:10393000696C6C2074616B6520617070726F782E99
:10394000203132206D696E732E0046697273742CBB
:1039500020492077696C6C2072756E207468652030
:1039600073656C667465737420746F206368656337
:103970006B206D6F737420636F6D6D6F6E2061735C
:1039800073656D626C792070726F626C656D732EF9
:103990000048692C204920616D20796F7572204F95
:1039A000726967696E616C2050727573612069334A
:1039B000207072696E7465722E20576F756C64206A
:1039C000796F75206C696B65206D6520746F206759
:1039D0007569646520796F75207468726F756768A2
:1039E000207468652073657475702070726F6365EC
:1039F00073733F00452D636F7272656374005A2DB7
:103A0000636F727265637400592D636F72726563C0
:103A10007400582D636F72726563740053706F6F1A
:103A20006C4A6F696E2020205B4E2F415D00537001
:103A30006F6F6C4A6F696E2020205B6F66665D0059
:103A400053706F6F6C4A6F696E202020205B6F6E21
:103A50005D00536F756E642020202020205B6C6F0A
:103A600075645D00536F756E642020202020205BFC
:103A70006D7574655D00536F756E64202020205B4A
:103A800073696C656E745D00536F756E64202020E1
:103A90002020205B6F6E63655D00536F756E642040
:103AA00020202020205B6C6F75645D00536F727462
:103AB0003A2020202020205B6E6F6E655D00536FE2
:103AC00072743A20205B616C7068616265745D009D
:103AD000536F72743A2020202020205B74696D653A
:103AE0005D005344206361726420205B6E6F726DD1
:103AF000616C5D0053442063617264205B666C738B
:103B0000684169725D0052506920706F72742020A4
:103B10002020205B6F6E5D0052506920706F7274C0
:103B2000202020205B6F66665D0054656D702E203E
:103B300063616C2E2020205B6F6E5D0054656D709C
:103B40002E2063616C2E20205B6F66665D004C69E1
:103B50006E2E20636F7272656374696F6E004661CA
:103B60006E7320636865636B20205B6F66665D0023
:103B700046616E7320636865636B2020205B6F6E07
:103B80005D00462E206175746F6C6F6164205B6F01
:103B900066665D00462E206175746F6C6F616420EF
:103BA000205B6F6E5D00462E206175746F6C6F61D7
:103BB00064205B4E2F415D0046696C2E2073656E5C
:103BC000736F72205B4E2F415D0044697361626CBC
:103BD00065207374657070657273004D6F76652033
:103BE000617869730054656D706572617475726592
:103BF0000054656D702E2063616C69627261746936
:103C00006F6E0052657365742058595A2063616C59
:103C10006962722E0053686F772070696E6461204C
:103C20007374617465005049442063616C69627209
:103C30006174696F6E00426564206C6576656C2006
:103C4000636F7272656374004D65736820426564CA
:103C5000204C6576656C696E670043616C696272C1
:103C6000617465205A0043616C69627261746520F9
:103C700058595A0053656C6674657374202020206F
:103C80002020202020004669727374206C617965C1
:103C9000722063616C2E0057697A617264004C6F08
:103CA00061642066696C616D656E742035004C6FCF
:103CB00061642066696C616D656E742034004C6FC0
:103CC00061642066696C616D656E742033004C6FB1
:103CD00061642066696C616D656E742032004C6FA2
:103CE00061642066696C616D656E742031004C6F93
:103CF000616420616C6C004C6F61642066696C616A
:103D00006D656E742035004C6F61642066696C616E
:103D10006D656E742034004C6F61642066696C615F
:103D20006D656E742033004C6F61642066696C6150
:103D30006D656E742032004C6F61642066696C6141
:103D40006D656E74203100456A6563742066696C28
:103D5000616D656E74203500456A6563742066691F
:103D60006C616D656E74203400456A65637420660D
:103D7000696C616D656E74203300456A65637420FB
:103D800066696C616D656E74203200456A656374A6
:103D90002066696C616D656E74203100506C6561E0
:103DA00073652070756C6C206F75742066696C612A
:103DB0006D656E7420696D6D6564696174656C799B
:103DC00000556E6C6F6164696E672066696C616D29
:103DD000656E740057697A61726420656E64207341
:103DE000746174653A2025640A00546F74616C0034
:103DF0004C617374207072696E7400416D62696504
:103E00006E7400426564004E6F7A7A6C650042659C
:103E10006C742073746174757300436F6F6C646F9E
:103E2000776E00566F6C74616765730054656D70D2
:103E300065726174757265730042656C7420737489
:103E40006174757300457874727564657220696E6B
:103E5000666F0058595A2063616C2E206465746146
:103E6000696C7300756E6B6E6F776E004D4D5532D9
:103E700020636F6E6E656374656400446174653AB7
:103E800000686F77746F2E707275736133642E6380
:103E90006F6D00666F72756D2E707275736133642D
:103EA0002E636F6D00707275736133642E636F6D76
:103EB0000046696C616D656E742065787472756416
:103EC000696E672026207769746820636F72726557
:103ED000637420636F6C6F723F0050726568656138
:103EE0007420746865206E6F7A7A6C652100455283
:103EF000524F523A004175746F6C6F6164696E671E
:103F00002066696C616D656E7420697320616374ED
:103F10006976652C206A75737420707265737320DE
:103F2000746865206B6E6F6220616E6420696E73C9
:103F30006572742066696C616D656E742E2E2E003C
:103F4000546F74616C207072696E742074696D6551
:103F500000546F74616C2066696C616D656E7400ED
:103F60005072696E742074696D650046696C616D8C
:103F7000656E742075736564005269676874004CDF
:103F800065667400592064697374616E63652066A8
:103F9000726F6D206D696E00536576657265207372
:103FA0006B657700536C6967687420736B65770085
:103FB0004D6561737572656420736B6577005B3066
:103FC0003B305D20706F696E74206F666673657438
:103FD0000041646A757374696E67205A0052657394
:103FE000657400526561722073696465205B756D4C
:103FF0005D0046726F6E7420736964655B756D5DFC
:1040000000526967687420736964655B756D5D0053
:104010004C6566742073696465205B756D5D005343
:1040200065742074656D70657261747572653A00AF
:104030001B5B323B314825533A2020256425631B06
:104040005B333B314850494E44413A2020202025E3
:10405000642563001B5B303B314825533A20202008
:10406000256425631B5B313B314825533A202020D2
:1040700020202025642563001B5B313B31485057CD
:10408000523A20202020202025642E2530316456ED
:104090001B5B323B31484245443A202020202020FF
:1040A00025642E2530316456001B5B303B3148259A
:1040B000531B5B313B3248582025641B5B323B323B
:1040C000485920256400464C4558202D2020323484
:1040D000302F35300050502020202D202032353414
:1040E0002F3130300048495053202D2020323230BB
:1040F0002F3130300041425320202D2020323535E1
:104100002F3130300050455420202D2020323330C4
:104110002F383500504C4120202D20203231352FB2
:10412000363000414253202020202D2020323535CA
:104130002F313030006E6F7A7A6C65202D2020325E
:1041400035302F30006661726D2020202D20203206
:1041500035302F363000466C6173684169722049F2
:104160005020416464723A004D4D55322020202089
:104170002020204E2F410025642E25642E25642DFD
:104180002564002046573A004A616E2031362032BD
:1041900030313900453344763666756C6C004549DC
:1041A0004E53795F31306100315F37356D6D5F4D52
:1041B0004B33002D2D2D2D2D2D2D2D2D2D2D2D0065
:1041C000207265706F20556E6B6E6F776E002032B7
:1041D0002E312E362D545A4237372D323337380090
:1041E0004669726D776172653A0025642E25642EEA
:1041F00025642E2564004D373032004D37303100B4
:104200004578747275646572006D6D0000590058D0
:1042100000580059005A002563252E3132533A25A3
:1042200073252B30362E3366001B5B324A25532014
:104230003A1B5B313B394825382E3266206D0A2502
:1042400053203A0A25376C6464203A253268686442
:1042500068203A253032686864206D001B5B324A62
:1042600025533A1B5B313B364825382E32666D208C
:104270000A2553203A1B5B333B38482532646820BB
:10428000253032646D2025303264730025362E329D
:10429000666D6D004E2F41001B5B303B304825534F
:1042A0003A0A25530A25533A0A25533A001B5B3034
:1042B0003B3135484E2F41001B5B303B31354825A3
:1042C000342E326601001B5B303B304825533A0ADE
:1042D00025530A25533A202025352E3266010A251A
:1042E000533A202025352E3266010043686F6F73E4
:1042F0006520636F6C6F723A004D37303220430097
:104300004661726D206E756D626572004D3630309B
:10431000004D3234004D323320257300052E2E001F
:10432000526573756D696E67207072696E740053A3
:104330007570706F7274004661696C20737461747B
:10434000730053746174697374696373202000434C
:10435000616C6962726174696F6E004175746F4C53
:104360006F61642066696C616D656E7400556E6C7A
:104370006F61642066696C616D656E7400456A6585
:1043800063742066696C616D656E74004C6F616466
:1043900020746F206E6F7A7A6C65004C6F616420B8
:1043A00066696C616D656E74004E6F2053442063C6
:1043B000617264005072696E742066726F6D205372
:1043C0004400526573756D65207072696E7400509B
:1043D00061757365207072696E74005072656865EE
:1043E00061740054756E65004C6976652061646A7D
:1043F000757374205A00496E666F20736372656529
:104400006E0046696E697368696E67206D6F7665C8
:104410006D656E747300536F756E642020202020CC
:10442000205B6C6F75645D00536F756E6420202097
:104430002020205B6D7574655D00536F756E642080
:104440002020205B73696C656E745D00536F756E20
:10445000642020202020205B6F6E63655D00536F19
:10446000756E642020202020205B6C6F75645D00D9
:104470004372617368206465742E20205B4E2F4167
:104480005D004372617368206465742E2020205B98
:104490006F6E5D004372617368206465742E202026
:1044A0005B6F66665D004D6F6465202020205B5366
:1044B0007465616C74685D004D6F64652020202018
:1044C000205B4E6F726D616C5D0046696C2E2073CF
:1044D000656E736F7220205B6F6E5D0046696C2E97
:1044E0002073656E736F72205B6F66665D00436854
:1044F000616E67652066696C616D656E7400466CFF
:104500006F770053706565640046616E2073706557
:10451000656400426564004E6F7A7A6C650053658D
:104520007474696E6773005072696E742061626F93
:104530007274656400596573004E6F0053746F7038
:10454000207072696E740046696C6520696E636FD5
:104550006D706C6574652E20436F6E74696E756541
:1045600020616E797761793F004D61696E002000AE
:104570003E003E0020003E003E0054656D706572B6
:1045800061747572652063616C6962726174696FD0
:104590006E206661696C65642E20436F6E74696E6F
:1045A00075652077697468207072657373696E67CA
:1045B00020746865206B6E6F622E0054656D7065A7
:1045C0007261747572652063616C6962726174698D
:1045D0006F6E20646F6E652E20436F6E74696E750A
:1045E000652077697468207072657373696E6720DF
:1045F000746865206B6E6F622E005A3020284C451F
:1046000044206F6E2920005A3120284C4544206FE9
:1046100066662900502E492E4E2E442E412E2073C0
:10462000746174650054656D70657261747572654E
:104630002063616C6962726174696F6E2066616982
:104640006C65640054656D70657261747572652087
:1046500063616C6962726174696F6E206973206650
:10466000696E697368656420616E64206163746952
:1046700076652E2054656D702E2063616C696272C0
:104680006174696F6E2063616E2062652064697376
:1046900061626C656420696E206D656E752053657E
:1046A0007474696E67732D3E54656D702E2063615E
:1046B0006C2E004578747275646572004D6F766576
:1046C000205A004D6F76652059004D6F7665205851
:1046D000001B5B324A4372617368206465746563D2
:1046E00074696F6E2063616E1B5B313B304862659D
:1046F000207475726E6564206F6E206F6E6C792009
:10470000696E1B5B323B30484E6F726D616C206D81
:104710006F6465001B5B324A5741524E494E473A1F
:104720001B5B313B3048437261736820646574657C
:104730006374696F6E1B5B323B30486469736162FE
:104740006C656420696E1B5B333B30485374656154
:104750006C7468206D6F6465004175746F6C6F6177
:1047600064696E672066696C616D656E7420617640
:1047700061696C61626C65206F6E6C792077686529
:104780006E2066696C616D656E742073656E736F03
:1047900072206973207475726E6564206F6E2E2EA0
:1047A0002E004552524F523A2046696C616D656E3B
:1047B000742073656E736F72206973206E6F74203E
:1047C000726573706F6E64696E672C20706C6561C2
:1047D000736520636865636B20636F6E6E656374D9
:1047E000696F6E2E0043757272656E740055736545
:1047F0006420647572696E67207072696E7400500F
:1048000049442063616C2E2066696E697368656433
:10481000005049442063616C2E202020202020205D
:104820002020202000506C656173652077616974D9
:10483000004D313137204669727374206C6179659F
:10484000722063616C2E005072696E742070617505
:1048500073656400496E76616C6964205049442038
:1048600063616C2E20726573756C74732E204E6FAD
:10487000742073746F72656420746F2045455052C4
:104880004F4D2E004D353030004731205A31352004
:104890004631353030004739310047312058353006
:1048A00020593139302045302046373030300047EC
:1048B0003930004D373032004D3730322043004D13
:1048C0003730322055004D373032004D37303220EE
:1048D00043004731205A31352046313530300047CA
:1048E0003931004731205835302059313930204591
:1048F00030204637303030004D38330047393000F3
:104900004D3834004D313034205330004D383400B0
:104910004D37303220430047312058313020593153
:104920003830204634303030004731205A31302082
:1049300046313330302E303030004D31343020535A
:1049400030004D31303420533000473120452D3078
:104950002E30373530302046323130302E30303046
:104960003030004D31303700473120583530205934
:1049700035352045332E363237373300473120580E
:10498000323030205935352045302E3439333836E1
:104990000047312058323030205937352045332EEA
:1049A00036323737330047312058353020593735C4
:1049B0002045302E343933383600473120583530D1
:1049C000205939352045332E3632373733004731B9
:1049D0002058323030205939352045302E34393383
:1049E00038360047312058323030205931313520A7
:1049F00045332E3632373733004731205835302093
:104A0000593131352045302E34393338360047316D
:104A10002058353020593133352045332E36323742
:104A20003733004731205832303020593133352068
:104A300045302E3636313734004731205832303049
:104A400020593135352045322E363237373300473D
:104A5000312058313030205931353520453200472A
:104A6000312058373520593135352045322E350023
:104A70004731204631303830004731205A302E310E
:104A800035302046373230302E303030004731203C
:104A900058353020593135350047312046343030D3
:104AA00030004D3230342053313030300047312027
:104AB0005A352046373230302E30303000473120E2
:104AC000452D312E35303030302046323130302EC9
:104AD0003030303030004D38330047393000473205
:104AE00031004739322045302E30004731205831CF
:104AF00030302E30204531322E35204631303030A6
:104B00002E30004731205836302E302045392E3097
:104B10002046313030302E300047312058352E308D
:104B20002045342E302046313030302E3000473191
:104B3000205A302E32302046313030302E3000476F
:104B400031205835352E302045323520463134302D
:104B5000302E3000473120592D322E302046313052
:104B600030302E3000473120583234302E3020453E
:104B700032352E30202046323230302E3000473948
:104B8000322045302E30004731205A302E33204617
:104B9000313030302E30004731205835352E30201E
:104BA00045382E302046323030302E30004731200C
:104BB00058352E30204533322E30204631383030B3
:104BC0002E30004731205835352E30204533322ED7
:104BD000302046313037332E30004731205A302EC6
:104BE000342046313030302E3000473120592D33BB
:104BF0002E302046313030302E30004D38330047D3
:104C000039322045302E3000473238004D313039AE
:104C10002053323135004D31393020533630004D7C
:104C200031343020533630004D313034205332315E
:104C300035004D31303700627573793A20706175F7
:104C400073656420666F7220696E7075740062759A
:104C500073793A2070617573656420666F72207590
:104C600073657200627573793A2070726F63657351
:104C700073696E67002046004731205A00204600C5
:104C800047312045004D3833006F6B0A000000218A
:104C900010422063308440A550C660E77008812927
:104CA000914AA16BB18CC1ADD1CEE1EFF1311210BF
:104CB0000273325222B5529442F772D66239931877
:104CC000837BB35AA3BDD39CC3FFF3DEE3622443CB
:104CD0003420040114E664C774A44485546AA54BC7
:104CE000B528850995EEE5CFF5ACC58DD55336725F
:104CF0002611163006D776F6669556B4465BB77A17
:104D0000A719973887DFF7FEE79DD7BCC7C448E5EA
:104D1000588668A7784008611802282338CCC9ED66
:104D2000D98EE9AFF9488969990AA92BB9F55AD4FE
:104D30004AB77A966A711A500A333A122AFDDBDCB6
:104D4000CBBFFB9EEB799B588B3BBB1AABA66C870A
:104D50007CE44CC55C222C033C600C411CAEED8F06
:104D6000FDECCDCDDD2AAD0BBD688D499D977EB69E
:104D70006ED55EF44E133E322E511E700E9FFFBE56
:104D8000EFDDDFFCCF1BBF3AAF599F788F8891A929
:104D900081CAB1EBA10CD12DC14EF16FE18010A100
:104DA00000C230E3200450254046706760B9839804
:104DB00093FBA3DAB33DC31CD37FE35EF3B1029050
:104DC00012F322D2323542145277625672EAB5CBD0
:104DD000A5A89589856EF54FE52CD50DC5E234C3A0
:104DE00024A01481046674476424540544DBA7FAA4
:104DF000B79987B8975FE77EF71DC73CD7D326F2F0
:104E0000369106B01657667676154634564CD96DEF
:104E1000C90EF92FE9C899E9898AB9ABA94458653F
:104E20004806782768C018E1088238A3287DCB5C43
:104E3000DB3FEB1EFBF98BD89BBBAB9ABB754A548F
:104E40005A376A167AF10AD01AB32A923A2EFD0F0F
:104E5000ED6CDD4DCDAABD8BADE89DC98D267C07DF
:104E60006C645C454CA23C832CE01CC10C1FEF3EE3
:104E7000FF5DCF7CDF9BAFBABFD98FF89F176E362F
:104E80007E554E745E932EB23ED10EF01E7C3C3E9B
:104E90005E2B3D3F2F5B5D3B2C2A225C00000E13F6
:104EA00015110E00000004120912040000001C1F5E
:104EB00011111F00000006191803130C00040E1F27
:104EC000041C000000040A0A0A0A11110E001F1532
:104ED00011151F0000000103161C0800000000113E
:104EE0000A04110A040C12120C00000000256325AC
:104EF0002D3138532563002563252E3135533A254E
:104F000073253364002563252E3132533A257325EA
:104F100000457872656D65207370616E206F662044
:104F2000746865205A2076616C7565732100205B7A
:104F30006F66665D00426564206C6576656C696EBF
:104F400067206661696C65642E2053656E736F72AD
:104F5000206469646E7420747269676765722E20BC
:104F6000446562726973206F6E206E6F7A7A6C6529
:104F70003F2057616974696E6720666F72207265A1
:104F80007365742E001000C90210012C014001222B
:104F90000170011801B0010E01F00104015002FA84
:104FA00000B002F0003003E600D003DC009004D231
:104FB000007005C800A006BE000008B400B009AA31
:104FC00000D00BA000600E960060118C00001582CE
:104FD0000020197800C01D6E00A0226400B0275A7E
:104FE00000902C500000314600E0343C0010383274
:104FF00000903A2800603C1E00A03D1400803E0A4C
:1050000000203F000070012C0190012701B0012217
:1050100001C0011D01F00118011002130130020E40
:10502000016002090190020401C002FF000003FABE
:10503000004003F5008003F000D003EB002004E6FD
:10504000007004E100E004DC004005D700C005D298
:10505000004006CD00D006C8008007C3003008BE5F
:1050600000F008B900C009B400B00AAF00B00BAA44
:1050700000D00CA500000EA000500F9B00C01096A1
:10508000005012910000148C00C0158700B01782E8
:1050900000B0197D00D01B7800001E730040206E08
:1050A0000090226900F024640040275F0090295A94
:1050B00000E02B5500102E500020304B00103246DF
:1050C00000E033410090353C001037370070383233
:1050D00000A0392D00B03A2800A03B2300603C1E00
:1050E00000103D1900903D1400103E0F00703E0A64
:1050F00000C03E0500003F000090137D00B0157811
:1051000000F0177300601A6E00F01C6900A01F64A5
:105110000050225F0020255A00E0275500902A50B9
:1051200000202D4B00A02F4600F031410010343CF0
:1051300000F0353700A037320020392D00603A28C2
:1051400000703B2300603C1E00203D1900C03D1450
:1051500000403E0F00A03E0A00F03E0500403F0028
:1051600000703FFBFF903FF6FFB03FF1FFC03FEC08
:10517000FFD03FE7FFE03FE2FFF03FDDFFF03FD829
:10518000FF20484F54454E4420544845524D414C11
:105190002052554E415741590020484541544245FF
:1051A0004420544845524D414C2052554E415741A0
:1051B0005900544845524D414C2052554E4157419B
:1051C000590042454420544845524D414C205255C7
:1051D0004E415741590020544845524D414C2052B0
:1051E000554E415741592028205052454845415479
:1051F00020484F54454E44290020544845524D41C3
:105200004C2052554E415741592028205052454874
:105210004541542048454154424544290050524597
:1052200048454154204552524F5200424544205077
:10523000524548454154204552524F5200457272E2
:105240003A204D415854454D50003A2045787472EB
:1052500075646572207377697463686564206F662E
:10526000662E204D415854454D5020747269676731
:10527000657265642021004572723A204D41585490
:10528000454D50204245440054656D70657261740F
:105290007572652068656174656420626564207359
:1052A00077697463686564206F66662E204D415887
:1052B00054454D502074726967676572656420219A
:1052C000004572723A204D494E54454D502042459A
:1052D000440054656D70657261747572652068650F
:1052E00061746564206265642073776974636865BE
:1052F00064206F66662E204D494E54454D502074F3
:1053000072696767657265642021004572723A2090
:105310004D494E54454D50003A204578747275649D
:105320006572207377697463686564206F66662EA2
:10533000204D494E54454D5020747269676765721F
:105340006564202100746D63323133305F686F6DA6
:10535000655F656E74657228617865735F6D6173F2
:105360006B3D307825303278290A00746D63323114
:1053700033305F686F6D655F6578697420746D6345
:10538000323133305F73675F686F6D696E675F617D
:105390007865735F6D61736B3D3078253032780AC4
:1053A0000043616E6E6F7420656E74657220737554
:1053B000626469723A200053442063617264206F12
:1053C0006B006F70656E526F6F74206661696C65FB
:1053D0006400766F6C756D652E696E697420666108
:1053E000696C656400534420696E69742066616964
:1053F0006C0057726974696E6720746F2066696CFF
:10540000653A200046696C652073656C6563746558
:1054100064002053697A653A200046696C65206F04
:1054200070656E65643A20001F1F1F1F1F1F1F1F1E
:105430002E002E004E6F77206672657368206669B5
:105440006C653A20004E6F7720646F696E67206646
:10545000696C653A20002220706F73002220706111
:1054600072656E743A2200535542524F5554494E5C
:10547000452043414C4C207461726765743A2200A8
:10548000747279696E6720746F2063616C6C20732D
:1054900075622D67636F64652066696C657320773C
:1054A00069746820746F6F206D616E79206C657609
:1054B000656C732E204D4158206C6576656C2069B3
:1054C000733A00536F7274696E672066696C657316
:1054D00000536F6D652066696C65732077696C6C2D
:1054E000206E6F7420626520736F727465642E2065
:1054F0004D61782E204E6F2E206F662066696C6598
:105500007320696E203120666F6C64657220666F4F
:105510007220736F7274696E672069732031303046
:105520002E0046696C616D656E742073656E736FD5
:105530007200537761707065640046726F6E742FED
:105540006C6566742066616E730041786973004112
:10555000786973206C656E677468004C6F6F736553
:105560002070756C6C657900456E6473746F702083
:105570006E6F742068697400456E6473746F700098
:105580004D6F746F7200456E6473746F7073005763
:105590006972696E67206572726F7200426564207D
:1055A0002F20486561746572004E6F7420636F6EC2
:1055B0006E6563746564004865617465722F546834
:1055C00065726D6973746F7200506C6561736520EC
:1055D000636865636B203A0053656C667465737429
:1055E000206572726F7220210046696C616D656E74
:1055F000742073656E736F723A005072696E742016
:1056000066616E3A004578747275646572206661F1
:105610006E3A0053656C6674657374206661696CDC
:105620006564202000416C6C20636F727265637446
:1056300020202020202000436865636B696E67206E
:1056400073656E736F72732000436865636B696E78
:105650006720626564202020202000436865636B1A
:10566000696E67205A20617869732020004368655D
:10567000636B696E6720592061786973202000434D
:105680006865636B696E67205820617869732020B4
:1056900000436865636B696E6720686F74656E644C
:1056A000202000436865636B696E6720656E6473D4
:1056B000746F7073004572726F72202D2073746165
:1056C000746963206D656D6F727920686173206203
:1056D00065656E206F7665727772697474656E00A9
:1056E000436172642072656D6F7665640043617218
:1056F0006420696E736572746564002D2D2D2D2DE7
:105700002D2D2D2D2D2D2D2D2D2D2D2D2D2D2D00F6
:1057100043616C6962726174696E6720686F6D6560
:10572000000000000000110A045052555341334458
:105730004657002079303D25640A002078303D2509
:10574000640A004F4B0A004552524F522061643D9B
:1057500025640A002020207A303D25640A00207A42
:10576000303D25640A002079303D25640A00207808
:10577000303D25640A0078797A63616C5F66696EF2
:10578000645F706F696E745F63656E746572320A10
:1057900000322E312E362D545A42373700726300B4
:1057A0006265746100616C706861006465760078A0
:1057B000797A63616C5F73706972616C32206378AF
:1057C0003D25642063793D2564207A303D256420A1
:1057D000647A3D2564207261646975733D25642097
:1057E00061643D25640A0001021020200808102091
:1057F000401020408002010201080402010102045D
:10580000081020408080402010080402018004021B
:105810000180402010080402010804020101020472
:105820000810204080010204081020408010080465
:105830000880102040044080102040048000002296
:1058400000250028002B002E00310034000201004A
:1058500000050108010B01050505050705080808F5
:1058600008020202020A0A080804040404010101F1
:1058700001010101010303030303030303040707F9
:10588000070C0C0C0C0C0C0C0C0202020206060697
:1058900006060606060B0B0B0B0B0B0B0B07070A7A
:1058A0000A0A0A0A0A050505040404080802746DB8
:1058B00063323133305F676F746F5F73746570206C
:1058C0002564202564202564202564200A002E00FC
:1058D0006F70656E206661696C65642C2046696C2A
:1058E000653A200022206661696C65643A20427541
:1058F000666665722066756C6C2100220025692041
:10590000686F757273202569206D696E7574657393
:105910000054494D454F55543A004D313130004601
:10592000756C6C2052582042756666657200656E13
:10593000717565696E67202200446F6E6520707214
:10594000696E74696E672066696C65005072696E75
:105950007465722073746F7070656420647565205F
:10596000746F206572726F72732E2046697820748E
:105970006865206572726F7220616E642075736550
:10598000204D39393920746F2072657374617274D7
:105990002E202854656D706572617475726520697A
:1059A000732072657365742E2053657420697420AA
:1059B00061667465722072657374617274696E6772
:1059C00029004E6F204C696E65204E756D626572C0
:1059D000207769746820636865636B73756D2C202C
:1059E0004C617374204C696E653A20004E6F204301
:1059F0006865636B73756D2077697468206C696E78
:105A000065206E756D6265722C204C617374204C3C
:105A1000696E653A2000636865636B73756D206D10
:105A200069736D617463682C204C617374204C69D8
:105A30006E653A20004C696E65204E756D62657228
:105A4000206973206E6F74204C617374204C696EF2
:105A500065204E756D6265722B312C204C6173741C
:105A6000204C696E653A200053544F505045442EE7
:105A700020006673656E736F725F73746F705F6121
:105A80006E645F736176655F7072696E740A00663A
:105A900073656E736F725F726573746F72655F703A
:105AA00072696E745F616E645F636F6E74696E7548
:105AB000650A0044495341424C45440A00454E4161
:105AC000424C4544004653656E736F722025530A5D
:105AD00000504154393132355F696E69743A256836
